:020000040800F2
:10000000000002206D040008C5040008C5040008B3
:10001000C5040008C5040008C5040008000000006D
:100020000000000000000000000000007908000847
:10003000C504000800000000C908000821090008E4
:10004000C5040008C5040008C5040008C50400086C
:10005000C5040008C5040008C5040008C50400085C
:10006000C5040008C5040008C5040008C50400084C
:10007000C5040008C5040008C5040008C50400083C
:10008000C5040008C5040008C5040008C50400082C
:10009000C5040008C5040008C5040008C50400081C
:1000A000C5040008C5040008C5040008C50400080C
:1000B000C5040008C5040008C5040008C5040008FC
:1000C000C5040008C5040008C5040008C5040008EC
:1000D000C5040008C5040008C5040008C5040008DC
:1000E000C5040008C5040008C5040008C5040008CC
:1000F000C5040008C5040008C5040008C5040008BC
:10010000C5040008C5040008C5040008C5040008AB
:10011000C5040008C5040008C5040008C50400089B
:10012000C5040008C5040008C5040008C50400088B
:10013000C5040008C5040008C5040008C50400087B
:10014000C5040008C5040008C5040008C50400086B
:10015000C5040008C5040008C5040008C50400085B
:10016000C5040008C5040008C5040008C50400084B
:10017000C5040008C5040008C5040008C50400083B
:08018000C5040008C5040008D5
:1001880010B5054C237833B9044B13B10448AFF3C9
:1001980000800123237010BD4808002000000000E3
:1001A80018150008084B10B51BB108480849AFF3EB
:1001B80000800848036803B910BD074B002BFBD02B
:1001C800BDE81040184700BF0000000018150008DF
:1001D8004C080020440800200000000030B54020F2
:1001E80083B0012100F0B4FC0E4A0F4C4FF4C04319
:1001F8000093136B002143F04003012502208DF882
:1002080006108DF807108DF805008DF8045020466B
:10021800136300F095FB2046694600F03FFC03B0ED
:1002280030BD00BF003802400018024008B5FFF793
:10023800D5FF00F01DF80028FBD06128024808BF50
:10024800024800F07FF8F4E7F4140008E01400080E
:1002580010B504460548802100F09AFC0028F9D022
:1002680021460248BDE8104000F08ABC0010014059
:1002780008B50548202100F08BFC18B1024800F0B1
:1002880083FCC0B208BD00BF001001400A2810B5A9
:10029800044604D02046BDE81040FFF7D9BF0D2022
:1002A800FFF7D6FF2046BDE81040FFF7D1BF00BFDB
:1002B800F0B5002987B03DDB0026002ABABF5242BC
:1002C80030252025142A33DCC9B20024B0FBF1F311
:1002D80001FB1300C0B2092888BF073006AF2744C6
:1002E80088BFC0B23030013407F8140CE4B21846A5
:1002F800002BEBD1234676B106A901340B44E4B2B6
:10030800A24203F8146C234608DD06A90B44013405
:10031800E4B203F8145CA2422346F6DC013CE4B2E2
:1003280006AB234413F8140CFFF7B0FF002CF5D1EB
:1003380007B0F0BD0028C1F10001BDDA40422D260A
:10034800BBE700BF0FB470B582B006AB53F8045BCF
:100358000193287838B125280AD00135FFF796FF90
:1003680028780028F7D102B0BDE8704004B0704783
:100378006C78302C2FD0002602353246A4F130009C
:1003880009284FF000030AD815F8014B03EB830145
:1003980000EB4101A4F1300009280B44F4D96C2C7E
:1003A80015D0002CDFD0732C1BD0632C32D07340B7
:1003B800752C1A4426D0642C21D0582C24D1102115
:1003C800019B1C1D18680194FFF772FFC1E701200B
:1003D8002C780544E5E7AC784FF0FF360335012269
:1003E800CCE7019B1C682078043301930028B0D027
:1003F800FFF74CFF14F8010F0028F9D1A9E76FF0B7
:100408000901DDE70A21DBE7782CD8D0622CAAD1D4
:100418000221D5E7019B1A1D18780192FFF736FFD4
:1004280097E700BF10B500F033FA0B490B4B0A8869
:100438005B6A0B4C9342B8BF03F580330B80D4E959
:1004480000019B1AC01841EBE371C4E9000100F0F8
:100458002BFAD4E9000110BD640800200014004004
:1004680068080020002103E00E4B5B58435004311C
:100478000D480E4B42189A42F6D30D4A02E000236B
:1004880042F8043B0B4B9A42F9D30B48016841F4FC
:100498007001016000F014F800F080FBFFF7C6FE61
:1004A800704700003C1500080000002044080020A8
:1004B800480800203C09002088ED00E0FEE7000025
:1004C8004149424BD1F88820414842F47002C1F8B2
:1004D80088201A68002142F001021A6099601A689F
:1004E80022F0847222F480321A6058601A6882B04E
:1004F80022F480221A60D960009101911A6842F4AE
:1005080080321A601A4603E0009BB3F5A04F09D069
:10051800136803F400330193009B01330093019B9C
:10052800002BF1D0294B1B6813F4003318BF0123AB
:100538000193019B012B42D0244B26491A6C42F0AF
:1005480080521A640A6842F440420A609A689A60C3
:100558009A6842F400429A609A6842F4A0529A60FB
:100568001A6842F080721A601A689201FCD519491B
:100578000B6843F480330B604A68164BD003FBD5F5
:100588001A6842F400321A605A689203FCD5124B7A
:100598000E4A40F205711960936823F003039360D3
:1005A800936843F002039360936803F00C03082BED
:1005B800FAD1054B4FF000629A6002B07047034BC6
:1005C800064A5A60B8E700BF00ED00E00038024074
:1005D8001030002400700040003C0240085A4007D8
:1005E80030B40C4C23688BB11944EFF308820A4DE0
:1005F8002D68521B914203D82160184630BC7047C1
:100608000C23036030BC4FF0FF307047034B23606E
:10061800EAE700BF38090020000000203C0900205C
:1006280000F036B900F040B9074B1A68126822B9D1
:10063800064B4FF0FF321A6070471A68034BD268B6
:10064800D26852681A60704778080020E8080020CD
:1006580038B51D4B1D4D1E4C00221A60FFF7E2FEF7
:100668002A681C4B9042186004D921680B6D9B1AAC
:1006780003440B65184A19491368286003EB830380
:1006880051F823304BB91368013B1360136803EB2F
:10069800830351F82330002BF5D0136803EB830351
:1006A8009B00C818083342685268426019448A425D
:1006B80006D0D36823602268094BD26CDA6038BD53
:1006C80052684260F5E700BF00090020700800206A
:1006D800E4080020F8080020FC080020800800201A
:1006E800007400402DE9F84F3D4B1B68002B45D1A5
:1006F8003C4B1A6801321A601E68002E5BD03A4BD8
:100708001B689E4247D3394FDFF8F890DFF8F8802E
:10071800374D002429E0354B1B68DB68D3F80CA063
:10072800DAF804200AF1040B9642584654D300F034
:100738008BF8DAF828200AF118000AB100F084F8DA
:10074800DAF82C202B6802EB82009A42594609EB12
:10075800800088BF2A6000F067F8D8F80010DAF83F
:100768002C20CB6A9A4228BF01243B681B68002BC7
:10077800D1D11D4A4FF0FF33136011E01D4A1368B1
:100788000133136000241C4B1B68002B18BF012485
:100798002046BDE8F88FDFF86C90DFF86C80002405
:1007A800D8F80030DB6A03EB830359F82330022BB7
:1007B80028BF0124E7E7114B0C4F114A3968186824
:1007C80038601960136801331360FFF72DFF064B7B
:1007D8001B689E4297D2DEE7034B1A60E0E700BF32
:1007E800EC080020F0080020E80800207808002025
:1007F800FC0800207C08002000090020F4080020E4
:100808007408002080080020E4080020044B1B68BE
:100818001BB1044B01221A607047FFF719BF00BFD4
:10082800EC0800200009002090E80C0010B49C6837
:100838008C609C684B600132616099605DF8044B84
:1008480008610260704700BF43688168026910B49C
:100858009960816854684B601368844208BF51608E
:10086800013B002101615DF8044B13601846704795
:10087800064B1968086850F804EBB0E8F00F80F3ED
:1008880009884FF0000080F311887047E4080020C1
:100898004FF0BF0080F31188024A136801331360D8
:1008A800704700BF04000020044A1368013B13602E
:1008B8001BB94FF0000080F3118870470400002036
:1008C800EFF30980134B1A6820E9F00F1EF0100FA0
:1008D80008BF20ED108A40F804ED10602DE90840AB
:1008E8004FF0BF0080F31188FFF790FF4FF0000032
:1008F80080F31188BDE808401968086850F804EBCF
:100908001EF0100F08BFB0EC108AB0E8F00F80F3AB
:1009180009887047E408002008B54FF0BF0080F34D
:100928001188FFF7DFFE18B1044B4FF080521A60B0
:100938004FF0000080F3118808BD00BF04ED00E00F
:1009480008B54B4B98422AD04A4B984231D04A4B73
:10095800984238D0494B98423FD0494B984246D0AC
:10096800484B98424DD0484B984254D0474B9842F8
:100978005BD0474B984262D0464B98426BD0464B6F
:10098800984200D008BD4FF48060012100F0ECF8D7
:100998004FF480600021BDE8084000F0E5B8012070
:1009A800014600F0E1F801200021BDE8084000F010
:1009B800DBB80220012100F0D7F802200021BDE8B1
:1009C800084000F0D1B80420012100F0CDF804203F
:1009D8000021BDE8084000F0C7B80820012100F058
:1009E800C3F808200021BDE8084000F0BDB8102079
:1009F800012100F0B9F810200021BDE8084000F0FE
:100A0800B3B82020012100F0AFF820200021BDE874
:100A1800084000F0A9B84020012100F0A5F84020C6
:100A28000021BDE8084000F09FB88020012100F0B7
:100A38009BF880200021BDE8084000F095B84FF4ED
:100A48008070012100F090F84FF480700021BDE81B
:100A5800084000F089B84FF40070012100F084F8D4
:100A68004FF400700021BDE8084000F07DB800BFD9
:100A7800000002400004024000080240000C02404E
:100A8800001002400014024000180240001C0240FE
:100A980000200240002402400028024000222DE9E4
:100AA800F0431346D1F800E001274FF0030C04E0AF
:100AB8000133102B02F1020228D007FA03F404EAEA
:100AC8000E05A542F4D1D0F800800E790CFA02F494
:100AD800E44304EA0808C0F80080D0F8008006FA69
:100AE80002F9013E49EA0808012EC0F800800FD932
:100AF800C568CE792C40C460C56806FA02F4013393
:100B08002C43102BC46002F10202D6D1BDE8F08359
:100B1800D0F8089091F805808E7904EA0909C0F8A0
:100B28000890D0F8089008FA02F848EA0908C0F8CE
:100B38000880D0F8048028EA05054560D0F80480CC
:100B480006FA03F5ADB245EA08054560D0E700BFEF
:100B5800044A136B19B923EA00001063704718435D
:100B68001063704700380240044A136919B923EA30
:100B78000000106170471843106170470038024048
:100B8800C1F30801818070478088C0F3080070476E
:100B98000388194214BF01200020704770B50F4E1A
:100BA8000F4D761BB61018BF002405D0013455F838
:100BB800043B9847A642F9D10A4E0B4D761B00F02C
:100BC800A7FCB61018BF002406D0013455F8043B22
:100BD8009847A642F9D170BD70BD00BF3015000816
:100BE800301500083815000830150008024B01467A
:100BF800186800F003B800BF300400202DE9F04F5A
:100C080001F10B05162D83B0064627D935F00705E7
:100C180000F1B680A94200F2B380FFF701FDB5F5F7
:100C2800FC7F22D2C24FE80807EBC003DC689C4275
:100C380000F0C9816368E168A56823F003032344D1
:100C480030465A68E96042F001028D605A60FFF749
:100C5800E9FC0834204603B0BDE8F08F102900F203
:100C68008F80FFF7DDFC1025DCE7680A00F08F8035
:100C7800042800F25481A80938304100AC4F07EB32
:100C88008101CC68A14206D10CE0002A80F2828062
:100C9800E468A14206D0636823F003035A1B0F2AB5
:100CA800F3DD01380130A2493C6901F1080E7445B1
:100CB80000F07E81636823F003035A1B0F2A00F3B8
:100CC8006481002AC1F814E0C1F810E073DAB3F5C2
:100CD800007F80F03981DB0801EBC3084FEAA30CE1
:100CE8004A68D8F80890C4F80890012303FA0CF36E
:100CF8001343C4F80C804B60C8F80840C9F80C408E
:100D08008210012494409C4262D8234206D120F0EC
:100D180003006400234200F10400FAD007EBC00886
:100D2800C4468146DCF80C309C4507D142E10029D5
:100D380080F25281DB689C4500F03C815A6822F0C1
:100D48000302511B0F29F2DD1C46D3F80CC054F8DE
:100D5800088F5A1945F0010941F00105C3F80490BC
:100D68003046C8F80CC0CCF808807A613A61C2F8FD
:100D78000CE0C2F808E055605150FFF753FC69E7F2
:100D880000240C232046336003B0BDE8F08F7E2199
:100D98003F2073E72344E1685A68A56842F00102DE
:100DA800E96030468D605A60FFF73CFC0834204605
:100DB80003B0BDE8F08F234430465A6842F0010280
:100DC8005A60FFF72FFC0834204603B0BDE8F08FC7
:100DD800BC68636823F00308454504D8C5EB0803DD
:100DE8000F2B00F38C80534BDFF858A11A68DAF800
:100DF800003001332A4404EB080B00F0508102F55F
:100E080080520F3222F47F6222F00F0211463046E0
:100E18000192FFF7E5FBB0F1FF3F8146019A00F030
:100E2800F580834500F2EF80434B1968CB451144A8
:100E3800196000F03D81DAF80000DFF808E10130C0
:100E48001BBFCBEB090B5944CEF80090196019F081
:100E5800070100F00781C1F10800C1F58051814404
:100E680008314A44C2F30B02C2EB010A514630462C
:100E78000193FFF7B5FB431C019B00F02781C9EBE9
:100E88000002524442F001021968C7F80890514420
:100E9800BC42C9F804201960DFF89CA016D0B8F14C
:100EA8000F0F40F2E2806268A8F10C0323F00703F9
:100EB800E01802F001024FF0050E1A430F2B626092
:100EC800C0F804E0C0F808E000F204811B4BBC68DD
:100ED8001A68914288BF1960194B1A689142626872
:100EE80088BF196022F003029542A2EB050301D8DE
:100EF8000F2B04DC3046FFF795FB0024AAE66219A5
:100F080043F0010345F0010565603046BA6053605F
:100F1800FFF788FB0834204603B0BDE8F08F14289B
:100F280069D9542800F29780280B6E304100A5E655
:100F3800340400200C0900201009002008090020B2
:100F480004090020400800205A0A042A56D9142A05
:100F580000F2A7805B324FEA420C07EB8C0CDFF8FB
:100F6800B481DCF80810614500F085804A6822F0F9
:100F78000302934202D289688C45F7D1CA687B681C
:100F8800E260A1609460CC60BAE6631942F00107A0
:100F980045F00105656030464B610B61C3F80CE014
:100FA800C3F808E05F609A500834FFF73BFB51E64E
:100FB8004B68A5E609F1010919F0030F0CF1080CBB
:100FC8007FF4B0AE2BE004F108036469A34208BFC4
:100FD80002303FF468AE2DE61A441C465168DB68BF
:100FE80054F8085F41F0010151603046EB609D60A4
:100FF800FFF718FB2EE65B3041003FE69A093832CE
:101008004FEA420CA9E7BC423FF40EAFBC686268E5
:1010180022F0030268E7D8F80080984577D110F0ED
:10102800030FA8F1080300F1FF30F4D17B6823EA2D
:1010380004037B6064009C423FF6CAAE002C3FF478
:10104800C7AE234248467FF469AE6400234200F1EC
:101058000400FAD062E6B0F5AA7F18D8E80B77301A
:1010680041000BE64FF48051FBE60123C9F8043038
:101078004C46002238E7D8F8043092104FF0010CA3
:101088000CFA02F21343C8F804300A4678E740F233
:101098005453984217D8A80C7C304100EEE5103222
:1010A800B4E6542A1ED81A0B6E324FEA420C54E7A3
:1010B800CBF30B0000287FF4BEAE4244BB6842F07D
:1010C80001025A6002E7FC217E20D7E501224FF099
:1010D800000AD9E604F10801304600F091F8DAF880
:1010E8000010F3E6B2F5AA7F04D8DA0B77324FEA9C
:1010F800420C32E740F254518A4204D89A0C7C32AE
:101108004FEA420C29E74FF0FC0C7E2225E77B686A
:1011180090E700BF34040020024B13B1024800F0EE
:1011280005B8704700000000411100080146002082
:101138000246034600F03CB938B5084B084DED1A95
:10114800AC1018BFED1805D0013C55F8043D984780
:10115800002CF9D1BDE8384000F0E0B93815000896
:101168003C150008F8B5234F0C460646FFF758FA19
:10117800BB685D6825F00305291B01F6EF7121F4B2
:101188007F6121F00F01A1F58054B4F5805F07DB82
:1011980030460021FFF724FABB682B44984204D05C
:1011A8003046FFF73FFA0020F8BD30466142FFF7AE
:1011B80017FA01300DD0104BBA6819682D1B45F08D
:1011C80001053046091B55601960FFF72BFA01200D
:1011D800F8BD30460021FFF703FABA68831A0F2BCF
:1011E800DEDD064C0449246843F00103001B53600C
:1011F8000860D5E7340400201009002040080020CA
:1012080000294ED02DE9F0410C468046FFF708FA38
:1012180054F8047C624927F00102A4F10805AB18D0
:101228008E6858689E4220F003005AD0FE07586026
:101238000BD454F8087CED1B01F1080EAC6874451A
:101248003A4467D0EF68E760BC601C186468E4073C
:101258000CD4544F9C68BC4202447CD0D868E060EF
:1012680042F0010384606B60AA5003E042F001037E
:101278006B60AA50B2F5007F14D2D20801EBC2030A
:1012880048689F68AF609210012404FA02F2104384
:10129800EB6048609D60FD604046BDE8F041FFF7A7
:1012A800C1B97047530A042B47D8930903F138048E
:1012B800600001EB80003A498368834243D0596853
:1012C80021F00301914202D99B689842F7D1DA686C
:1012D800EA60AB6040469560DD60BDE8F041FFF72D
:1012E800A1B9FF07024407D454F8083CED1A1A4480
:1012F800A868EB68C36098602B4B1B6842F001003C
:101308009A4268608D60C7D3284B40461968FFF73A
:1013180029FFC1E719184968C90709D4D9689B6822
:10132800024442F00100D9608B606860AA50B3E7BC
:1013380042F001036B60AA50AEE7142B14D803F1F6
:101348005B046000B5E74A68A4100120A04002438E
:101358004A601A46BCE742F001034D610D61EC603A
:10136800AC606B60AA5097E7542B04D8130B03F1B9
:101378006E0460009DE7B3F5AA7F04D8D30B03F190
:101388007704600095E740F25450834204D8930CE8
:1013980003F17C0460008CE7FC207E2489E700BF11
:1013A800340400203C0400203C0800200C090020E4
:1013B8002DE9F047254C2568D5F84841064688466A
:1013C80092469946CCB360681F2818DC431C7EB14E
:1013D80004EB80050121C5F888A0D4F8887101FACA
:1013E80000F21743022EC4F88871C5F808911ED080
:1013F8000230636044F820800020BDE8F087144B79
:1014080003B34FF4C870FFF7F1FB0446D0B1D5F829
:101418004831002780E88800C5F84841384601234C
:10142800C4F88871C4F88C71002EE1D0D0E7D4F8E4
:101438008C110A43C4F88C21DAE705F5A674C5F8BF
:101448004841C0E74FF0FF30BDE8F08714150008A9
:10145800F50B00080A2A2A2A207265736574202A67
:101468002A2A0A1B5B313B33316D53544D333246C4
:10147800342D444953434F1B5B306D20456D7074C8
:10148800792070726F6A6563740A00005468697322
:10149800206973206E6F726D616C207072696E7452
:1014A800662074657374210D00000000436C6F633F
:1014B8006B20696E666F3A20465F41504231203D8D
:1014C80020256420487A2C20465F41504232203D36
:1014D80020256420487A0A005779736C616E6F2062
:1014E8007A6E616B202261220A0000006E69652015
:1014F800726F7A706F7A6E616E6520706F6C65635B
:10150800656E69650A0000004300000008000020BD
:10151800F8B500BFF8BC08BC9E467047F8B500BFD8
:08152800F8BC08BC9E467047A8
:0815300021110008AD010008C3
:04153800890100081D
:10153C0000010000AAAAAAAA00000000F4020020E0
:10154C005C030020C4030020000000000000000029
:10155C00000000000000000000000000000000007F
:10156C000000000000000000000000001015000842
:10157C00000000000000000000000000000000005F
:10158C00000000000000000000000000000000004F
:10159C00000000000000000000000000000000003F
:1015AC00000000000000000000000000000000002F
:1015BC00000000000000000000000000000000001F
:1015CC00000000000000000000000000000000000F
:1015DC0000000000000000000000000000000000FF
:1015EC0001000000000000000E33CDAB34126DE69C
:1015FC00ECDE05000B000000000000000000000005
:10160C0000000000000000000000000000000000CE
:10161C0000000000000000000000000000000000BE
:10162C0000000000000000000000000000000000AE
:10163C00000000000000000000000000000000009E
:10196C0008000020000000000000000034040020EB
:10197C00340400203C0400203C04002044040020DB
:10198C00440400204C0400204C040020540400208B
:10199C00540400205C0400205C040020640400203B
:1019AC00640400206C0400206C04002074040020EB
:1019BC00740400207C0400207C040020840400209B
:1019CC00840400208C0400208C040020940400204B
:1019DC00940400209C0400209C040020A4040020FB
:1019EC00A4040020AC040020AC040020B4040020AB
:1019FC00B4040020BC040020BC040020C40400205B
:101A0C00C4040020CC040020CC040020D40400200A
:101A1C00D4040020DC040020DC040020E4040020BA
:101A2C00E4040020EC040020EC040020F40400206A
:101A3C00F4040020FC040020FC0400200405002019
:101A4C00040500200C0500200C05002014050020C6
:101A5C00140500201C0500201C0500202405002076
:101A6C00240500202C0500202C0500203405002026
:101A7C00340500203C0500203C05002044050020D6
:101A8C00440500204C0500204C0500205405002086
:101A9C00540500205C0500205C0500206405002036
:101AAC00640500206C0500206C05002074050020E6
:101ABC00740500207C0500207C0500208405002096
:101ACC00840500208C0500208C0500209405002046
:101ADC00940500209C0500209C050020A4050020F6
:101AEC00A4050020AC050020AC050020B4050020A6
:101AFC00B4050020BC050020BC050020C405002056
:101B0C00C4050020CC050020CC050020D405002005
:101B1C00D4050020DC050020DC050020E4050020B5
:101B2C00E4050020EC050020EC050020F405002065
:101B3C00F4050020FC050020FC0500200406002014
:101B4C00040600200C0600200C06002014060020C1
:101B5C00140600201C0600201C0600202406002071
:101B6C00240600202C0600202C0600203406002021
:101B7C00340600203C0600203C06002044060020D1
:101B8C00440600204C0600204C0600205406002081
:101B9C00540600205C0600205C0600206406002031
:101BAC00640600206C0600206C06002074060020E1
:101BBC00740600207C0600207C0600208406002091
:101BCC00840600208C0600208C0600209406002041
:101BDC00940600209C0600209C060020A4060020F1
:101BEC00A4060020AC060020AC060020B4060020A1
:101BFC00B4060020BC060020BC060020C406002051
:101C0C00C4060020CC060020CC060020D406002000
:101C1C00D4060020DC060020DC060020E4060020B0
:101C2C00E4060020EC060020EC060020F406002060
:101C3C00F4060020FC060020FC060020040700200F
:101C4C00040700200C0700200C07002014070020BC
:101C5C00140700201C0700201C070020240700206C
:101C6C00240700202C0700202C070020340700201C
:101C7C00340700203C0700203C07002044070020CC
:101C8C00440700204C0700204C070020540700207C
:101C9C00540700205C0700205C070020640700202C
:101CAC00640700206C0700206C07002074070020DC
:101CBC00740700207C0700207C070020840700208C
:101CCC00840700208C0700208C070020940700203C
:101CDC00940700209C0700209C070020A4070020EC
:101CEC00A4070020AC070020AC070020B40700209C
:101CFC00B4070020BC070020BC070020C40700204C
:101D0C00C4070020CC070020CC070020D4070020FB
:101D1C00D4070020DC070020DC070020E4070020AB
:101D2C00E4070020EC070020EC070020F40700205B
:101D3C00F4070020FC070020FC070020040800200A
:101D4C00040800200C0800200C08002014080020B7
:101D5C00140800201C0800201C0800202408002067
:101D6C00240800202C0800202C0800200000020071
:041D7C00FFFFFFFF67
:040000050800046D7E
:00000001FF
